{"abi":[{"type":"constructor","inputs":[],"stateMutability":"nonpayable"},{"type":"function","name":"BALANCER_VAULT","inputs":[],"outputs":[{"name":"","type":"address","internalType":"address"}],"stateMutability":"view"},{"type":"function","name":"UPGRADE_INTERFACE_VERSION","inputs":[],"outputs":[{"name":"","type":"string","internalType":"string"}],"stateMutability":"view"},{"type":"function","name":"executeArbitrage","inputs":[{"name":"paths","type":"tuple[]","internalType":"struct QuoteRouter.ExecHop[]","components":[{"name":"poolType","type":"uint8","internalType":"enum QuoteRouter.PoolType"},{"name":"router","type":"address","internalType":"address"},{"name":"tokenIn","type":"address","internalType":"address"},{"name":"tokenOut","type":"address","internalType":"address"},{"name":"fee","type":"uint24","internalType":"uint24"}]},{"name":"flashloanAmount","type":"uint256","internalType":"uint256"},{"name":"flashloanToken","type":"address","internalType":"address"}],"outputs":[],"stateMutability":"nonpayable"},{"type":"function","name":"initialize","inputs":[{"name":"owner_","type":"address","internalType":"address"}],"outputs":[],"stateMutability":"nonpayable"},{"type":"function","name":"owner","inputs":[],"outputs":[{"name":"","type":"address","internalType":"address"}],"stateMutability":"view"},{"type":"function","name":"proxiableUUID","inputs":[],"outputs":[{"name":"","type":"bytes32","internalType":"bytes32"}],"stateMutability":"view"},{"type":"function","name":"quoteArbitrage2Hop","inputs":[{"name":"hop1","type":"tuple","internalType":"struct QuoteRouter.Hop","components":[{"name":"poolType","type":"uint8","internalType":"enum QuoteRouter.PoolType"},{"name":"router","type":"address","internalType":"address"},{"name":"tokenIn","type":"address","internalType":"address"},{"name":"tokenOut","type":"address","internalType":"address"},{"name":"fee","type":"uint24","internalType":"uint24"}]},{"name":"hop2","type":"tuple","internalType":"struct QuoteRouter.Hop","components":[{"name":"poolType","type":"uint8","internalType":"enum QuoteRouter.PoolType"},{"name":"router","type":"address","internalType":"address"},{"name":"tokenIn","type":"address","internalType":"address"},{"name":"tokenOut","type":"address","internalType":"address"},{"name":"fee","type":"uint24","internalType":"uint24"}]},{"name":"amountIn","type":"uint256","internalType":"uint256"}],"outputs":[{"name":"amountOut","type":"uint256","internalType":"uint256"},{"name":"profit","type":"int256","internalType":"int256"}],"stateMutability":"nonpayable"},{"type":"function","name":"quoteArbitrage2HopExternal","inputs":[{"name":"hop1","type":"tuple","internalType":"struct QuoteRouter.Hop","components":[{"name":"poolType","type":"uint8","internalType":"enum QuoteRouter.PoolType"},{"name":"router","type":"address","internalType":"address"},{"name":"tokenIn","type":"address","internalType":"address"},{"name":"tokenOut","type":"address","internalType":"address"},{"name":"fee","type":"uint24","internalType":"uint24"}]},{"name":"hop2","type":"tuple","internalType":"struct QuoteRouter.Hop","components":[{"name":"poolType","type":"uint8","internalType":"enum QuoteRouter.PoolType"},{"name":"router","type":"address","internalType":"address"},{"name":"tokenIn","type":"address","internalType":"address"},{"name":"tokenOut","type":"address","internalType":"address"},{"name":"fee","type":"uint24","internalType":"uint24"}]},{"name":"amountIn","type":"uint256","internalType":"uint256"}],"outputs":[{"name":"amountOut","type":"uint256","internalType":"uint256"},{"name":"profit","type":"int256","internalType":"int256"}],"stateMutability":"nonpayable"},{"type":"function","name":"quoteBatchArbitrage","inputs":[{"name":"quotes","type":"tuple[]","internalType":"struct QuoteRouter.ArbQuote[]","components":[{"name":"hop1","type":"tuple","internalType":"struct QuoteRouter.Hop","components":[{"name":"poolType","type":"uint8","internalType":"enum QuoteRouter.PoolType"},{"name":"router","type":"address","internalType":"address"},{"name":"tokenIn","type":"address","internalType":"address"},{"name":"tokenOut","type":"address","internalType":"address"},{"name":"fee","type":"uint24","internalType":"uint24"}]},{"name":"hop2","type":"tuple","internalType":"struct QuoteRouter.Hop","components":[{"name":"poolType","type":"uint8","internalType":"enum QuoteRouter.PoolType"},{"name":"router","type":"address","internalType":"address"},{"name":"tokenIn","type":"address","internalType":"address"},{"name":"tokenOut","type":"address","internalType":"address"},{"name":"fee","type":"uint24","internalType":"uint24"}]},{"name":"amountIn","type":"uint256","internalType":"uint256"}]}],"outputs":[{"name":"results","type":"tuple[]","internalType":"struct QuoteRouter.ArbResult[]","components":[{"name":"amountOut","type":"uint256","internalType":"uint256"},{"name":"profit","type":"int256","internalType":"int256"},{"name":"success","type":"bool","internalType":"bool"}]}],"stateMutability":"nonpayable"},{"type":"function","name":"quoteMultiPaths","inputs":[{"name":"paths","type":"tuple[]","internalType":"struct QuoteRouter.PathQuote[]","components":[{"name":"hops","type":"tuple[]","internalType":"struct QuoteRouter.Hop[]","components":[{"name":"poolType","type":"uint8","internalType":"enum QuoteRouter.PoolType"},{"name":"router","type":"address","internalType":"address"},{"name":"tokenIn","type":"address","internalType":"address"},{"name":"tokenOut","type":"address","internalType":"address"},{"name":"fee","type":"uint24","internalType":"uint24"}]},{"name":"amountIn","type":"uint256","internalType":"uint256"}]}],"outputs":[{"name":"results","type":"tuple[]","internalType":"struct QuoteRouter.PathResult[]","components":[{"name":"amountOut","type":"uint256","internalType":"uint256"},{"name":"success","type":"bool","internalType":"bool"}]}],"stateMutability":"nonpayable"},{"type":"function","name":"quoteSinglePath","inputs":[{"name":"hops","type":"tuple[]","internalType":"struct QuoteRouter.Hop[]","components":[{"name":"poolType","type":"uint8","internalType":"enum QuoteRouter.PoolType"},{"name":"router","type":"address","internalType":"address"},{"name":"tokenIn","type":"address","internalType":"address"},{"name":"tokenOut","type":"address","internalType":"address"},{"name":"fee","type":"uint24","internalType":"uint24"}]},{"name":"amountIn","type":"uint256","internalType":"uint256"}],"outputs":[{"name":"amountOut","type":"uint256","internalType":"uint256"}],"stateMutability":"nonpayable"},{"type":"function","name":"receiveFlashLoan","inputs":[{"name":"tokens","type":"address[]","internalType":"address[]"},{"name":"amounts","type":"uint256[]","internalType":"uint256[]"},{"name":"feeAmounts","type":"uint256[]","internalType":"uint256[]"},{"name":"userData","type":"bytes","internalType":"bytes"}],"outputs":[],"stateMutability":"nonpayable"},{"type":"function","name":"renounceOwnership","inputs":[],"outputs":[],"stateMutability":"nonpayable"},{"type":"function","name":"transferOwnership","inputs":[{"name":"newOwner","type":"address","internalType":"address"}],"outputs":[],"stateMutability":"nonpayable"},{"type":"function","name":"upgradeToAndCall","inputs":[{"name":"newImplementation","type":"address","internalType":"address"},{"name":"data","type":"bytes","internalType":"bytes"}],"outputs":[],"stateMutability":"payable"},{"type":"function","name":"version","inputs":[],"outputs":[{"name":"","type":"string","internalType":"string"}],"stateMutability":"pure"},{"type":"event","name":"Initialized","inputs":[{"name":"version","type":"uint64","indexed":false,"internalType":"uint64"}],"anonymous":false},{"type":"event","name":"OwnershipTransferred","inputs":[{"name":"previousOwner","type":"address","indexed":true,"internalType":"address"},{"name":"newOwner","type":"address","indexed":true,"internalType":"address"}],"anonymous":false},{"type":"event","name":"Upgraded","inputs":[{"name":"implementation","type":"address","indexed":true,"internalType":"address"}],"anonymous":false},{"type":"error","name":"AddressEmptyCode","inputs":[{"name":"target","type":"address","internalType":"address"}]},{"type":"error","name":"ERC1967InvalidImplementation","inputs":[{"name":"implementation","type":"address","internalType":"address"}]},{"type":"error","name":"ERC1967NonPayable","inputs":[]},{"type":"error","name":"FailedCall","inputs":[]},{"type":"error","name":"InvalidInitialization","inputs":[]},{"type":"error","name":"NotInitializing","inputs":[]},{"type":"error","name":"OwnableInvalidOwner","inputs":[{"name":"owner","type":"address","internalType":"address"}]},{"type":"error","name":"OwnableUnauthorizedAccount","inputs":[{"name":"account","type":"address","internalType":"address"}]},{"type":"error","name":"UUPSUnauthorizedCallContext","inputs":[]},{"type":"error","name":"UUPSUnsupportedProxiableUUID","inputs":[{"name":"slot","type":"bytes32","internalType":"bytes32"}]}],"bytecode":{"object":"0x60a080604052346100cc57306080527ff0c57e16840df040f15088dc2f81fe391c3923bec73e23a9662efc9c229c6a009081549060ff8260401c166100bd57506001600160401b036002600160401b031982821601610078575b60405161214c90816100d1823960805181818161103b01526111270152f35b6001600160401b031990911681179091556040519081527fc7f505b2f371ae2175ee4913f4499e1f2633a7b5936321eed1cdaeb6115181d290602090a15f8080610059565b63f92ee8a960e01b8152600490fd5b5f80fdfe60806040526004361015610011575f80fd5b5f803560e01c806318b1c2b3146114a9578063293a83f1146112e25780634f1ef286146110a557806352934c9014610f7457806352d1902d1461102857806354fd4d5014610fe2578063715018a614610f795780638a32492014610f745780638da5cb5b14610f3f578063ad3cb1cc14610ef5578063bc16384614610ec6578063c4d66de814610d97578063ea2281b214610d50578063f04f270714610349578063f2fde38b1461031c5763fb9adf01146100ca575f80fd5b3461031957602080600319360112610315576001600160401b039160043583811161031557836100ff84923690600401611844565b919061010a83611874565b9261011860405194856117a5565b80845261012481611874565b601f1901865b8181106102ed575050855b81811061018757505050506040519180830190808452825180925280604085019301945b8281106101665784840385f35b85518051855282015115158483015294810194604090930192600101610159565b610195818385999799611b6e565b803590601e19813603018212156102e95701908135918583116102e957870160a0808402360382136102e5578890816101d285888a989698611b6e565b01359460405195869263751140d960e11b8452856044850160406004870152526064840192958c915b8183106102be57505050829394506024830152038189305af180879161028a575b6001935061025957506040516102318161178a565b8681528688820152610243828a611943565b5261024e8189611943565b505b01959395610135565b604051906102668261178a565b808252151588820152610279828a611943565b526102848189611943565b50610250565b90508783813d83116102b7575b6102a181836117a5565b810103126102b357600192519061021c565b5f80fd5b503d610297565b809396506001929550846102d48293968a6118c0565b0196019301879395928d95926101fb565b8780fd5b8680fd5b86906040989698516102fe8161178a565b878152878382015282828b0101520196949661012a565b5080fd5b80fd5b50346103195760203660031901126103195761034661033961170f565b610341611b90565b611afd565b80f35b5034610319576080366003190112610319576004356001600160401b0381116103155761037a903690600401611844565b6024356001600160401b038111610d4c57610399903690600401611844565b926044356001600160401b038111610d48576103b9903690600401611844565b946001600160401b03606435116102e9573660236064350112156102e95760643560040135936001600160401b0385116102e557366024866064350101116102e55773ba12222222228d8ba445958a75a0704d566bf2c83303610d0d57604060643586810103126102e55760246064350135946001600160401b038611610c7a57602481606435010160438760643501011215610c7a57610461602487606435010135611874565b9561046f60405197886117a5565b606435808201602481810135808b5260208b019593840190910160a090910290910160440111610d09576044826064350101925b6064358301602481013560a002016044018410610c7e575050505060643560440135916001600160a01b0383168303610c7a5715610c66573594859288965b8651881015610aa8576104f58888611943565b51604080820151602080840151925163095ea7b360e01b81526001600160a01b039384166004820152602481018690528e939092839160449183918791165af18015610a9d57610a6e575b5081516003811015610a5a578c92919061066557506105e1926040519161056683611739565b60028352604036602085013760408101516001600160a01b031661058984611926565b5260608101516001600160a01b03166105a184611933565b52602060018060a01b039101511690836040518096819582946338ed173960e01b845260048401526001602484015260a0604484015260a4830190611957565b30606483015242608483015203925af190811561065a578a91610638575b5080515f198101919082116106245760019161061a91611943565b515b9701966104e2565b634e487b7160e01b8b52601160045260248bfd5b61065491503d808c833e61064c81836117a5565b810190611e59565b5f6105ff565b6040513d8c823e3d90fd5b90809250516003811015610a5a578c93929190600103610914575060208101516001600160a01b03167332226588378236fd0c7c4053999f88ac0e5cac77036107b8579060e460209260018060a01b036040820151169260018060a01b0360608301511662ffffff60808401511690604051956106e18761176f565b86528686019081526040808701928352306060880190815260808801948552600160a0890190815260c089018b8152968a015192516304e45aaf60e01b815298516001600160a01b0390811660048b01529351841660248a0152935162ffffff166044890152518216606488015292516084870152905160a48601529151821660c4850152929485938492165af1801561065a578a90610785575b6001915061061c565b506020813d6020116107b0575b8161079f602093836117a5565b810103126102b3576001905161077c565b3d9150610792565b60408101516060820151608083015162ffffff1694506001600160a01b039081169392911690426104b08101106109005760405192836101008101106001600160401b03610100860111176108ec578e9560209561010494610100870160405286528686015260408501523060608501526104b04201608085015260a0840152600160c08401528460e08401528360018060a01b039101511691604051948593849263414bf38960e01b845260018060a01b03815116600485015260018060a01b038782015116602485015262ffffff604082015116604485015260018060a01b0360608201511660648501526080810151608485015260a081015160a485015260c081015160c485015260e060018060a01b039101511660e48401525af1801561065a578a90610785576001915061061c565b634e487b7160e01b5f52604160045260245ffd5b634e487b7160e01b8e52601160045260248efd5b91925080516003811015610a5a57600214610934575b506001915061061c565b604081015160608201516001600160a01b039182169492935016426104b0810110610a46576020928d949260e4926040519461096f8661176f565b8552858501908152306040808701918252426104b0016060880190815260808801948552600160a0890190815260c089018b8152968a0151925163178ca23160e31b815298516001600160a01b0390811660048b01529451851660248a0152925184166044890152516064880152925160848701525160a48601529151821660c4850152929485938492165af1801561065a578a90610a13575b600191505f61092a565b506020813d602011610a3e575b81610a2d602093836117a5565b810103126102b35760019051610a09565b3d9150610a20565b634e487b7160e01b8d52601160045260248dfd5b634e487b7160e01b8d52602160045260248dfd5b610a8f9060203d602011610a96575b610a8781836117a5565b810190611ae5565b505f610540565b503d610a7d565b6040513d8f823e3d90fd5b95508896508715610c5257358301809311610bc257828510610c145715610c00576001600160a01b03610ada846119ea565b16906040516020816044818a63a9059cbb60e01b9788835273ba12222222228d8ba445958a75a0704d566bf2c860048401528960248401525af18015610bf557610bd6575b5082850392858411610bc257869503610b36578480f35b610b80946020946001600160a01b0390610b4f906119ea565b6040519485526001600160a01b03909316600485015260248401949094529194859390911691839182906044820190565b03925af18015610bb757610b98575b80808084938480f35b610bb09060203d602011610a9657610a8781836117a5565b5081610b8f565b6040513d84823e3d90fd5b634e487b7160e01b5f52601160045260245ffd5b610bee9060203d602011610a9657610a8781836117a5565b5086610b1f565b6040513d89823e3d90fd5b634e487b7160e01b85526032600452602485fd5b60405162461bcd60e51b8152602060048201526016602482015275556e70726f66697461626c652061726269747261676560501b6044820152606490fd5b634e487b7160e01b87526032600452602487fd5b634e487b7160e01b88526032600452602488fd5b8880fd5b60a06024858460643501030112610d055760405190610c9c82611754565b600385351015610d0157602060a09160449387358152610cbd838901611725565b83820152610ccd60408901611725565b60408201526060610cdf818a01611725565b90820152610cef608089016118b0565b608082015281520194019390506104a3565b8c80fd5b8b80fd5b8a80fd5b60405162461bcd60e51b815260206004820152601360248201527213db9b1e4810985b185b98d95c8815985d5b1d606a1b6044820152606490fd5b8580fd5b8380fd5b503461031957604036600319011261031957600435906001600160401b038211610319576020610d8f610d8636600486016116df565b602435916119fe565b604051908152f35b503461031957602036600319011261031957610db161170f565b7ff0c57e16840df040f15088dc2f81fe391c3923bec73e23a9662efc9c229c6a0090815460ff8160401c1615916001600160401b03821680159081610ebe575b6001149081610eb4575b159081610eab575b50610e995767ffffffffffffffff1982166001178455610e349183610e7a575b50610e2c612024565b610341612024565b610e3c575080f35b68ff00000000000000001981541690557fc7f505b2f371ae2175ee4913f4499e1f2633a7b5936321eed1cdaeb6115181d2602060405160018152a180f35b68ffffffffffffffffff1916680100000000000000011784555f610e23565b60405163f92ee8a960e01b8152600490fd5b9050155f610e03565b303b159150610dfb565b849150610df1565b5034610319578060031936011261031957602060405173ba12222222228d8ba445958a75a0704d566bf2c88152f35b5034610319578060031936011261031957610f3b604051610f158161178a565b60058152640352e302e360dc1b6020820152604051918291602083526020830190611806565b0390f35b50346103195780600319360112610319575f805160206120f7833981519152546040516001600160a01b039091168152602090f35b6117c6565b5034610319578060031936011261031957610f92611b90565b5f805160206120f783398151915280546001600160a01b031981169091555f906001600160a01b03167f8be0079c531659141344cd1fd0a4f28419497f9722a3daafe3b4186f6b6457e08280a380f35b5034610319578060031936011261031957610f3b6040516110028161178a565b60058152640312e312e360dc1b6020820152604051918291602083526020830190611806565b50346103195780600319360112610319577f00000000000000000000000000000000000000000000000000000000000000006001600160a01b031630036110935760206040517f360894a13ba1a3210667c828492db98dca3e2076cc3735a920a3ca505d382bbc8152f35b60405163703e46dd60e11b8152600490fd5b506040366003190112610319576110ba61170f565b60249182356001600160401b03928382116112de57366023830112156112de5781600401359384116112cb576020936040519261110086601f19601f85011601856117a5565b81845236878383010111611292578185928888930183870137840101526001600160a01b037f0000000000000000000000000000000000000000000000000000000000000000811630811490811561129d575b5061109357611160611b90565b6040516352d1902d60e01b8152908216948082600481895afa9182918693611269575b50506111a157604051634c9c8ce360e01b8152600481018690528690fd5b909192947f360894a13ba1a3210667c828492db98dca3e2076cc3735a920a3ca505d382bbc918281036112545750823b1561123e575080546001600160a01b03191684179055604051927fbc7cd75a20ee27fd9adebab32041f755214dbc6bffa90cc0225b39da2e5c2d3b8580a2815115611224576112209250612065565b5080f35b50503461122f575080f35b63b398979f60e01b8152600490fd5b604051634c9c8ce360e01b815260048101869052fd5b60405190632a87526960e21b82526004820152fd5b9080929350813d8311611296575b61128181836117a5565b810103126112925751905f80611183565b8480fd5b503d611277565b9050817f360894a13ba1a3210667c828492db98dca3e2076cc3735a920a3ca505d382bbc541614155f611153565b84634e487b7160e01b5f5260416004525ffd5b8280fd5b50346102b3576003196060368201126102b3576001600160401b036004358181116102b3576113159036906004016116df565b6044356001600160a01b0381169291908390036102b35790611335611b90565b604051946113428661178a565b60018087526020948536818a013761135988611926565b526040516113668161178a565b60018152858101948636873760243561137e83611926565b526040518095826060830160408b850152526080820190925f5b86828210611488575050506113bc925033604083015203601f1981018652856117a5565b73ba12222222228d8ba445958a75a0704d566bf2c895863b156102b357604051632e1c224f60e11b815230600482015260806024820152988996959493919290839061140c9060848a0190611957565b91858984030160448a015251918281520195925f5b828110611472575050505050836114478482945f989694848a9603016064850152611806565b03925af1801561146757611459578280f35b90809250116108ec57604052005b6040513d5f823e3d90fd5b845188528b985096810196938101938301611421565b9193509161149681866118c0565b60a0948501948994910192909101611398565b346102b3576020806003193601126102b3576004356001600160401b03918282116102b357366023830112156102b35781600401359283116102b35760248201916024369161016086020101116102b357919061150582611874565b9161151360405193846117a5565b80835261151f81611874565b601f19015f5b8181106116b05750505f5b81811061158c5750505060405190828201838352815180915283604084019201935f5b8281106115605784840385f35b855180518552808301518584015260409081015115159085015294810194606090930192600101611553565b61159a81838596979561188b565b9060a06115a882858861188b565b016115e26101406115ba84878a61188b565b0135916115d860405195630451924960e51b875260048701906118c0565b60a48501906118c0565b610144830152604082610164815f305af191825f915f91611677575b5060019361164357505060405161161481611739565b5f81525f858201525f604082015261162c8288611943565b526116378187611943565b505b0193929193611530565b6040519161165083611739565b8252858201528260408201526116668288611943565b526116718187611943565b50611639565b9150506040813d6040116116a8575b81611693604093836117a5565b810103126102b35780519085015160016115fe565b3d9150611686565b94809394956040516116c181611739565b5f81525f838201525f60408201528282890101520194939294611525565b9181601f840112156102b3578235916001600160401b0383116102b35760208085019460a085020101116102b357565b600435906001600160a01b03821682036102b357565b35906001600160a01b03821682036102b357565b606081019081106001600160401b038211176108ec57604052565b60a081019081106001600160401b038211176108ec57604052565b60e081019081106001600160401b038211176108ec57604052565b604081019081106001600160401b038211176108ec57604052565b90601f801991011681019081106001600160401b038211176108ec57604052565b346102b357366003190161016081126102b35760a0136102b35760a03660a31901126102b35760406117fa61014435611993565b82519182526020820152f35b91908251928382525f5b848110611830575050825f602080949584010152601f8019910116010190565b602081830181015184830182015201611810565b9181601f840112156102b3578235916001600160401b0383116102b3576020808501948460051b0101116102b357565b6001600160401b0381116108ec5760051b60200190565b919081101561189c57610160020190565b634e487b7160e01b5f52603260045260245ffd5b359062ffffff821682036102b357565b803560038110156102b3576119206080809362ffffff9386526118e560208201611725565b6001600160a01b0390811660208801528061190260408401611725565b16604088015261191460608301611725565b166060870152016118b0565b16910152565b80511561189c5760200190565b80516001101561189c5760400190565b805182101561189c5760209160051b010190565b9081518082526020808093019301915f5b828110611976575050505090565b83516001600160a01b031685529381019392810192600101611968565b9061199d82611bc8565b80156119c7576119ac90611c9a565b915f818403911283821281169084831390151617610bc25790565b50600160ff1b8214610bc2575f915f0390565b919081101561189c5760a0020190565b356001600160a01b03811681036102b35790565b9291925f915b808310611a1057505050565b909193611a1e8583856119da565b3560038110156102b357611a8857611a6e90611a466020611a408886886119da565b016119ea565b90611a576040611a408987896119da565b90611a686060611a408a888a6119da565b92611ed2565b935b8415611a80576001019190611a04565b505f93505050565b611a986020611a408785876119da565b90611aa96040611a408886886119da565b611ab96060611a408987896119da565b906080611ac78987896119da565b01359262ffffff841684036102b357611adf94611d6d565b93611a70565b908160209103126102b3575180151581036102b35790565b6001600160a01b03908116908115611b56575f805160206120f783398151915280546001600160a01b031981168417909155167f8be0079c531659141344cd1fd0a4f28419497f9722a3daafe3b4186f6b6457e05f80a3565b604051631e4fbdf760e01b81525f6004820152602490fd5b919081101561189c5760051b81013590603e19813603018212156102b3570190565b5f805160206120f7833981519152546001600160a01b03163303611bb057565b60405163118cdaa760e01b8152336004820152602490fd5b60043560038110156102b35780611c155750602435906001600160a01b039081831683036102b3576044359082821682036102b35760643592831683036102b357611c1293611ed2565b90565b600103611c6257602435906001600160a01b0380831683036102b35760443581811681036102b35760643591821682036102b3576084359262ffffff841684036102b357611c1294611d6d565b602435906001600160a01b039081831683036102b3576044359082821682036102b35760643592831683036102b357611c1293611f8c565b60a43560038110156102b35780611ce5575060c435906001600160a01b039081831683036102b35760e4359082821682036102b3576101043592831683036102b357611c1293611ed2565b600103611d345760c435906001600160a01b0380831683036102b35760e43581811681036102b3576101043591821682036102b357610124359262ffffff841684036102b357611c1294611d6d565b60c435906001600160a01b039081831683036102b35760e4359082821682036102b3576101043592831683036102b357611c1293611f8c565b936080925f60a49260018060a01b039788809681938260405197611d9089611754565b16875282602088019b168b52604087019182526060870162ffffff80921681528a880192878452846040519d8e9c8d9b636352813560e11b8d52511660048c0152511660248a01525160448901525116606487015251166084850152165af19182915f93611e04575b5050611c1257505f90565b909192506080813d608011611e51575b81611e21608093836117a5565b810103126102b3578051916020820151908116036102b3576040015163ffffffff8116036102b357905f80611df9565b3d9150611e14565b60209081818403126102b3578051906001600160401b0382116102b357019180601f840112156102b3578251611e8e81611874565b93611e9c60405195866117a5565b818552838086019260051b8201019283116102b3578301905b828210611ec3575050505090565b81518152908301908301611eb5565b611f3f93915f9360405193611ee685611739565b600285526040366020870137611efb85611926565b6001600160a01b03928316905281611f1286611933565b9116905260405180968195829463d06ca61f60e01b84526004840152604060248401526044830190611957565b0392165afa5f9181611f70575b50611f5657505f90565b80515f198101908111610bc257611f6c91611943565b5190565b611f859192503d805f833e61064c81836117a5565b905f611f4c565b60408051632d9ebd1d60e01b81526001600160a01b039485166004820152948416602486015260448501929092525f60648501819052919284926084928492165af15f9181611fe0575b50611c1257505f90565b9091506040813d60401161201c575b81611ffc604093836117a5565b810103126102b3576020815191015161ffff8116036102b357905f611fd6565b3d9150611fef565b60ff7ff0c57e16840df040f15088dc2f81fe391c3923bec73e23a9662efc9c229c6a005460401c161561205357565b604051631afcd79f60e31b8152600490fd5b905f8091602081519101845af480806120e3575b156120995750506040513d81523d5f602083013e60203d82010160405290565b156120c057604051639996b31560e01b81526001600160a01b039091166004820152602490fd5b3d156120d1576040513d5f823e3d90fd5b60405163d6bda27560e01b8152600490fd5b503d1515806120795750813b151561207956fe9016d09d72d40fdae2fd8ceac6b6234c7706214fd39c1cd1e609a0528c199300a26469706673582212208bf933b51574b3947c82182dc20314a28e49f2ad5fa60437909c65e12c8198c364736f6c63430008180033","linkReferences":{}},"methodIdentifiers":{"BALANCER_VAULT()":"bc163846","UPGRADE_INTERFACE_VERSION()":"ad3cb1cc","executeArbitrage((uint8,address,address,address,uint24)[],uint256,address)":"293a83f1","initialize(address)":"c4d66de8","owner()":"8da5cb5b","proxiableUUID()":"52d1902d","quoteArbitrage2Hop((uint8,address,address,address,uint24),(uint8,address,address,address,uint24),uint256)":"52934c90","quoteArbitrage2HopExternal((uint8,address,address,address,uint24),(uint8,address,address,address,uint24),uint256)":"8a324920","quoteBatchArbitrage(((uint8,address,address,address,uint24),(uint8,address,address,address,uint24),uint256)[])":"18b1c2b3","quoteMultiPaths(((uint8,address,address,address,uint24)[],uint256)[])":"fb9adf01","quoteSinglePath((uint8,address,address,address,uint24)[],uint256)":"ea2281b2","receiveFlashLoan(address[],uint256[],uint256[],bytes)":"f04f2707","renounceOwnership()":"715018a6","transferOwnership(address)":"f2fde38b","upgradeToAndCall(address,bytes)":"4f1ef286","version()":"54fd4d50"},"id":39}