{"abi":[{"type":"constructor","inputs":[],"stateMutability":"nonpayable"},{"type":"function","name":"BALANCER_VAULT","inputs":[],"outputs":[{"name":"","type":"address","internalType":"address"}],"stateMutability":"view"},{"type":"function","name":"UPGRADE_INTERFACE_VERSION","inputs":[],"outputs":[{"name":"","type":"string","internalType":"string"}],"stateMutability":"view"},{"type":"function","name":"executeArbitrage","inputs":[{"name":"paths","type":"tuple[]","internalType":"struct QuoteRouter.ExecHop[]","components":[{"name":"poolType","type":"uint8","internalType":"enum QuoteRouter.PoolType"},{"name":"router","type":"address","internalType":"address"},{"name":"tokenIn","type":"address","internalType":"address"},{"name":"tokenOut","type":"address","internalType":"address"},{"name":"fee","type":"uint24","internalType":"uint24"}]},{"name":"flashloanAmount","type":"uint256","internalType":"uint256"},{"name":"flashloanToken","type":"address","internalType":"address"}],"outputs":[],"stateMutability":"nonpayable"},{"type":"function","name":"initialize","inputs":[{"name":"owner_","type":"address","internalType":"address"}],"outputs":[],"stateMutability":"nonpayable"},{"type":"function","name":"owner","inputs":[],"outputs":[{"name":"","type":"address","internalType":"address"}],"stateMutability":"view"},{"type":"function","name":"proxiableUUID","inputs":[],"outputs":[{"name":"","type":"bytes32","internalType":"bytes32"}],"stateMutability":"view"},{"type":"function","name":"quoteArbitrage2Hop","inputs":[{"name":"hop1","type":"tuple","internalType":"struct QuoteRouter.Hop","components":[{"name":"poolType","type":"uint8","internalType":"enum QuoteRouter.PoolType"},{"name":"router","type":"address","internalType":"address"},{"name":"tokenIn","type":"address","internalType":"address"},{"name":"tokenOut","type":"address","internalType":"address"},{"name":"fee","type":"uint24","internalType":"uint24"}]},{"name":"hop2","type":"tuple","internalType":"struct QuoteRouter.Hop","components":[{"name":"poolType","type":"uint8","internalType":"enum QuoteRouter.PoolType"},{"name":"router","type":"address","internalType":"address"},{"name":"tokenIn","type":"address","internalType":"address"},{"name":"tokenOut","type":"address","internalType":"address"},{"name":"fee","type":"uint24","internalType":"uint24"}]},{"name":"amountIn","type":"uint256","internalType":"uint256"}],"outputs":[{"name":"amountOut","type":"uint256","internalType":"uint256"},{"name":"profit","type":"int256","internalType":"int256"}],"stateMutability":"nonpayable"},{"type":"function","name":"quoteArbitrage2HopExternal","inputs":[{"name":"hop1","type":"tuple","internalType":"struct QuoteRouter.Hop","components":[{"name":"poolType","type":"uint8","internalType":"enum QuoteRouter.PoolType"},{"name":"router","type":"address","internalType":"address"},{"name":"tokenIn","type":"address","internalType":"address"},{"name":"tokenOut","type":"address","internalType":"address"},{"name":"fee","type":"uint24","internalType":"uint24"}]},{"name":"hop2","type":"tuple","internalType":"struct QuoteRouter.Hop","components":[{"name":"poolType","type":"uint8","internalType":"enum QuoteRouter.PoolType"},{"name":"router","type":"address","internalType":"address"},{"name":"tokenIn","type":"address","internalType":"address"},{"name":"tokenOut","type":"address","internalType":"address"},{"name":"fee","type":"uint24","internalType":"uint24"}]},{"name":"amountIn","type":"uint256","internalType":"uint256"}],"outputs":[{"name":"amountOut","type":"uint256","internalType":"uint256"},{"name":"profit","type":"int256","internalType":"int256"}],"stateMutability":"nonpayable"},{"type":"function","name":"quoteBatchArbitrage","inputs":[{"name":"quotes","type":"tuple[]","internalType":"struct QuoteRouter.ArbQuote[]","components":[{"name":"hop1","type":"tuple","internalType":"struct QuoteRouter.Hop","components":[{"name":"poolType","type":"uint8","internalType":"enum QuoteRouter.PoolType"},{"name":"router","type":"address","internalType":"address"},{"name":"tokenIn","type":"address","internalType":"address"},{"name":"tokenOut","type":"address","internalType":"address"},{"name":"fee","type":"uint24","internalType":"uint24"}]},{"name":"hop2","type":"tuple","internalType":"struct QuoteRouter.Hop","components":[{"name":"poolType","type":"uint8","internalType":"enum QuoteRouter.PoolType"},{"name":"router","type":"address","internalType":"address"},{"name":"tokenIn","type":"address","internalType":"address"},{"name":"tokenOut","type":"address","internalType":"address"},{"name":"fee","type":"uint24","internalType":"uint24"}]},{"name":"amountIn","type":"uint256","internalType":"uint256"}]}],"outputs":[{"name":"results","type":"tuple[]","internalType":"struct QuoteRouter.ArbResult[]","components":[{"name":"amountOut","type":"uint256","internalType":"uint256"},{"name":"profit","type":"int256","internalType":"int256"},{"name":"success","type":"bool","internalType":"bool"}]}],"stateMutability":"nonpayable"},{"type":"function","name":"quoteMultiPaths","inputs":[{"name":"paths","type":"tuple[]","internalType":"struct QuoteRouter.PathQuote[]","components":[{"name":"hops","type":"tuple[]","internalType":"struct QuoteRouter.Hop[]","components":[{"name":"poolType","type":"uint8","internalType":"enum QuoteRouter.PoolType"},{"name":"router","type":"address","internalType":"address"},{"name":"tokenIn","type":"address","internalType":"address"},{"name":"tokenOut","type":"address","internalType":"address"},{"name":"fee","type":"uint24","internalType":"uint24"}]},{"name":"amountIn","type":"uint256","internalType":"uint256"}]}],"outputs":[{"name":"results","type":"tuple[]","internalType":"struct QuoteRouter.PathResult[]","components":[{"name":"amountOut","type":"uint256","internalType":"uint256"},{"name":"success","type":"bool","internalType":"bool"}]}],"stateMutability":"nonpayable"},{"type":"function","name":"quoteSinglePath","inputs":[{"name":"hops","type":"tuple[]","internalType":"struct QuoteRouter.Hop[]","components":[{"name":"poolType","type":"uint8","internalType":"enum QuoteRouter.PoolType"},{"name":"router","type":"address","internalType":"address"},{"name":"tokenIn","type":"address","internalType":"address"},{"name":"tokenOut","type":"address","internalType":"address"},{"name":"fee","type":"uint24","internalType":"uint24"}]},{"name":"amountIn","type":"uint256","internalType":"uint256"}],"outputs":[{"name":"amountOut","type":"uint256","internalType":"uint256"}],"stateMutability":"nonpayable"},{"type":"function","name":"receiveFlashLoan","inputs":[{"name":"tokens","type":"address[]","internalType":"address[]"},{"name":"amounts","type":"uint256[]","internalType":"uint256[]"},{"name":"feeAmounts","type":"uint256[]","internalType":"uint256[]"},{"name":"userData","type":"bytes","internalType":"bytes"}],"outputs":[],"stateMutability":"nonpayable"},{"type":"function","name":"renounceOwnership","inputs":[],"outputs":[],"stateMutability":"nonpayable"},{"type":"function","name":"transferOwnership","inputs":[{"name":"newOwner","type":"address","internalType":"address"}],"outputs":[],"stateMutability":"nonpayable"},{"type":"function","name":"upgradeToAndCall","inputs":[{"name":"newImplementation","type":"address","internalType":"address"},{"name":"data","type":"bytes","internalType":"bytes"}],"outputs":[],"stateMutability":"payable"},{"type":"function","name":"version","inputs":[],"outputs":[{"name":"","type":"string","internalType":"string"}],"stateMutability":"pure"},{"type":"event","name":"Initialized","inputs":[{"name":"version","type":"uint64","indexed":false,"internalType":"uint64"}],"anonymous":false},{"type":"event","name":"OwnershipTransferred","inputs":[{"name":"previousOwner","type":"address","indexed":true,"internalType":"address"},{"name":"newOwner","type":"address","indexed":true,"internalType":"address"}],"anonymous":false},{"type":"event","name":"Upgraded","inputs":[{"name":"implementation","type":"address","indexed":true,"internalType":"address"}],"anonymous":false},{"type":"error","name":"AddressEmptyCode","inputs":[{"name":"target","type":"address","internalType":"address"}]},{"type":"error","name":"ERC1967InvalidImplementation","inputs":[{"name":"implementation","type":"address","internalType":"address"}]},{"type":"error","name":"ERC1967NonPayable","inputs":[]},{"type":"error","name":"FailedCall","inputs":[]},{"type":"error","name":"InvalidInitialization","inputs":[]},{"type":"error","name":"NotInitializing","inputs":[]},{"type":"error","name":"OwnableInvalidOwner","inputs":[{"name":"owner","type":"address","internalType":"address"}]},{"type":"error","name":"OwnableUnauthorizedAccount","inputs":[{"name":"account","type":"address","internalType":"address"}]},{"type":"error","name":"UUPSUnauthorizedCallContext","inputs":[]},{"type":"error","name":"UUPSUnsupportedProxiableUUID","inputs":[{"name":"slot","type":"bytes32","internalType":"bytes32"}]}],"bytecode":{"object":"0x60a06040523060805234801562000014575f80fd5b506200001f62000025565b620000d9565b7ff0c57e16840df040f15088dc2f81fe391c3923bec73e23a9662efc9c229c6a00805468010000000000000000900460ff1615620000765760405163f92ee8a960e01b815260040160405180910390fd5b80546001600160401b0390811614620000d65780546001600160401b0319166001600160401b0390811782556040519081527fc7f505b2f371ae2175ee4913f4499e1f2633a7b5936321eed1cdaeb6115181d29060200160405180910390a15b50565b60805161267b620001005f395f8181610e6a01528181610e9301526110df015261267b5ff3fe6080604052600436106100ef575f3560e01c80638da5cb5b11610087578063ea2281b211610057578063ea2281b2146102c2578063f04f2707146102e1578063f2fde38b14610300578063fb9adf011461031f575f80fd5b80638da5cb5b146101fc578063ad3cb1cc1461024c578063bc1638461461027c578063c4d66de8146102a3575f80fd5b806352d1902d116100c257806352d1902d1461019057806354fd4d50146101b2578063715018a6146101e85780638a3249201461015c575f80fd5b806318b1c2b3146100f3578063293a83f1146101285780634f1ef2861461014957806352934c901461015c575b5f80fd5b3480156100fe575f80fd5b5061011261010d366004611a96565b61034b565b60405161011f9190611b05565b60405180910390f35b348015610133575f80fd5b50610147610142366004611bba565b610508565b005b610147610157366004611c80565b610638565b348015610167575f80fd5b5061017b610176366004611d37565b610657565b6040805192835260208301919091520161011f565b34801561019b575f80fd5b506101a46106a3565b60405190815260200161011f565b3480156101bd575f80fd5b506040805180820190915260058152640312e302e360dc1b60208201525b60405161011f9190611db7565b3480156101f3575f80fd5b506101476106be565b348015610207575f80fd5b507f9016d09d72d40fdae2fd8ceac6b6234c7706214fd39c1cd1e609a0528c199300546001600160a01b03165b6040516001600160a01b03909116815260200161011f565b348015610257575f80fd5b506101db604051806040016040528060058152602001640352e302e360dc1b81525081565b348015610287575f80fd5b5061023473ba12222222228d8ba445958a75a0704d566bf2c881565b3480156102ae575f80fd5b506101476102bd366004611dc9565b6106d1565b3480156102cd575f80fd5b506101a46102dc366004611de4565b6107c8565b3480156102ec575f80fd5b506101476102fb366004611e6b565b610975565b34801561030b575f80fd5b5061014761031a366004611dc9565b610c2b565b34801561032a575f80fd5b5061033e610339366004611f4f565b610c68565b60405161011f9190611f8d565b6060816001600160401b0381111561036557610365611c14565b6040519080825280602002602001820160405280156103b957816020015b6103a660405180606001604052805f81526020015f81526020015f151581525090565b8152602001906001900390816103835790505b5090505f5b828110156105015730638a3249208585848181106103de576103de611fd0565b905061016002015f018686858181106103f9576103f9611fd0565b9050610160020160a00187878681811061041557610415611fd0565b9050610160020161014001356040518463ffffffff1660e01b815260040161043f939291906120a8565b60408051808303815f875af1925050508015610478575060408051601f3d908101601f19168201909252610475918101906120d3565b60015b6104bb5760405180606001604052805f81526020015f81526020015f15158152508282815181106104ab576104ab611fd0565b60200260200101819052506104f9565b6040518060600160405280838152602001828152602001600115158152508484815181106104eb576104eb611fd0565b602002602001018190525050505b6001016103be565b5092915050565b610510610e04565b6040805160018082528183019092525f916020808301908036833701905050905081815f8151811061054457610544611fd0565b6001600160a01b0392909216602092830291909101909101526040805160018082528183019092525f9181602001602082028036833701905050905083815f8151811061059357610593611fd0565b6020026020010181815250505f8686336040516020016105b5939291906120f5565b60408051601f1981840301815290829052632e1c224f60e11b8252915073ba12222222228d8ba445958a75a0704d566bf2c890635c38449e9061060290309087908790879060040161218f565b5f604051808303815f87803b158015610619575f80fd5b505af115801561062b573d5f803e3d5ffd5b5050505050505050505050565b610640610e5f565b61064982610f03565b6106538282610f0b565b5050565b5f805f6106648685610fcc565b9050805f03610681575f6106778561221b565b925092505061069b565b61068b8582610fcc565b92506106978484612235565b9150505b935093915050565b5f6106ac6110d4565b505f8051602061262683398151915290565b6106c6610e04565b6106cf5f61111d565b565b5f6106da61118d565b805490915060ff600160401b82041615906001600160401b03165f811580156107005750825b90505f826001600160401b0316600114801561071b5750303b155b905081158015610729575080155b156107475760405163f92ee8a960e01b815260040160405180910390fd5b845467ffffffffffffffff19166001178555831561077157845460ff60401b1916600160401b1785555b61077a866111b5565b83156107c057845460ff60401b19168555604051600181527fc7f505b2f371ae2175ee4913f4499e1f2633a7b5936321eed1cdaeb6115181d29060200160405180910390a15b505050505050565b805f5b8381101561096c575f8585838181106107e6576107e6611fd0565b6107fc92602060a0909202019081019150612254565b600281111561080d5761080d611ff7565b036108a05761089985858381811061082757610827611fd0565b905060a00201602001602081019061083f9190611dc9565b8387878581811061085257610852611fd0565b905060a00201604001602081019061086a9190611dc9565b88888681811061087c5761087c611fd0565b905060a0020160600160208101906108949190611dc9565b6111c6565b9150610954565b6109518585838181106108b5576108b5611fd0565b905060a0020160200160208101906108cd9190611dc9565b838787858181106108e0576108e0611fd0565b905060a0020160400160208101906108f89190611dc9565b88888681811061090a5761090a611fd0565b905060a0020160600160208101906109229190611dc9565b89898781811061093457610934611fd0565b905060a00201608001602081019061094c919061226d565b6112eb565b91505b815f03610964575f91505061096e565b6001016107cb565b505b9392505050565b3373ba12222222228d8ba445958a75a0704d566bf2c8146109d35760405162461bcd60e51b815260206004820152601360248201527213db9b1e4810985b185b98d95c8815985d5b1d606a1b60448201526064015b60405180910390fd5b5f806109e1838501856122b3565b915091505f88885f8181106109f8576109f8611fd0565b9050602002013590505f5b8351811015610a3957610a2f848281518110610a2157610a21611fd0565b6020026020010151836113bf565b9150600101610a03565b505f87875f818110610a4d57610a4d611fd0565b905060200201358a8a5f818110610a6657610a66611fd0565b90506020020135610a7791906123bd565b905080821015610ac25760405162461bcd60e51b8152602060048201526016602482015275556e70726f66697461626c652061726269747261676560501b60448201526064016109ca565b8b8b5f818110610ad457610ad4611fd0565b9050602002016020810190610ae99190611dc9565b60405163a9059cbb60e01b815273ba12222222228d8ba445958a75a0704d566bf2c86004820152602481018390526001600160a01b03919091169063a9059cbb906044016020604051808303815f875af1158015610b49573d5f803e3d5ffd5b505050506040513d601f19601f82011682018060405250810190610b6d91906123d0565b505f610b7982846123ef565b90508015610c1c578c8c5f818110610b9357610b93611fd0565b9050602002016020810190610ba89190611dc9565b60405163a9059cbb60e01b81526001600160a01b03868116600483015260248201849052919091169063a9059cbb906044016020604051808303815f875af1158015610bf6573d5f803e3d5ffd5b505050506040513d601f19601f82011682018060405250810190610c1a91906123d0565b505b50505050505050505050505050565b610c33610e04565b6001600160a01b038116610c5c57604051631e4fbdf760e01b81525f60048201526024016109ca565b610c658161111d565b50565b6060816001600160401b03811115610c8257610c82611c14565b604051908082528060200260200182016040528015610cc657816020015b604080518082019091525f8082526020820152815260200190600190039081610ca05790505b5090505f5b82811015610501573063ea2281b2858584818110610ceb57610ceb611fd0565b9050602002810190610cfd9190612402565b610d079080612420565b878786818110610d1957610d19611fd0565b9050602002810190610d2b9190612402565b602001356040518463ffffffff1660e01b8152600401610d4d93929190612464565b6020604051808303815f875af1925050508015610d87575060408051601f3d908101601f19168201909252610d84918101906124ae565b60015b610dc45760405180604001604052805f81526020015f1515815250828281518110610db457610db4611fd0565b6020026020010181905250610dfc565b60405180604001604052808281526020015f83111515815250838381518110610def57610def611fd0565b6020026020010181905250505b600101610ccb565b33610e367f9016d09d72d40fdae2fd8ceac6b6234c7706214fd39c1cd1e609a0528c199300546001600160a01b031690565b6001600160a01b0316146106cf5760405163118cdaa760e01b81523360048201526024016109ca565b306001600160a01b037f0000000000000000000000000000000000000000000000000000000000000000161480610ee557507f00000000000000000000000000000000000000000000000000000000000000006001600160a01b0316610ed95f80516020612626833981519152546001600160a01b031690565b6001600160a01b031614155b156106cf5760405163703e46dd60e11b815260040160405180910390fd5b610c65610e04565b816001600160a01b03166352d1902d6040518163ffffffff1660e01b8152600401602060405180830381865afa925050508015610f65575060408051601f3d908101601f19168201909252610f62918101906124ae565b60015b610f8d57604051634c9c8ce360e01b81526001600160a01b03831660048201526024016109ca565b5f805160206126268339815191528114610fbd57604051632a87526960e21b8152600481018290526024016109ca565b610fc78383611823565b505050565b5f80610fdb6020850185612254565b6002811115610fec57610fec611ff7565b0361102c576110256110046040850160208601611dc9565b836110156060870160408801611dc9565b6108946080880160608901611dc9565b90506110ce565b600161103b6020850185612254565b600281111561104c5761104c611ff7565b03611095576110256110646040850160208601611dc9565b836110756060870160408801611dc9565b6110856080880160608901611dc9565b61094c60a0890160808a0161226d565b6110256110a86040850160208601611dc9565b836110b96060870160408801611dc9565b6110c96080880160608901611dc9565b611878565b92915050565b306001600160a01b037f000000000000000000000000000000000000000000000000000000000000000016146106cf5760405163703e46dd60e11b815260040160405180910390fd5b7f9016d09d72d40fdae2fd8ceac6b6234c7706214fd39c1cd1e609a0528c19930080546001600160a01b031981166001600160a01b03848116918217845560405192169182907f8be0079c531659141344cd1fd0a4f28419497f9722a3daafe3b4186f6b6457e0905f90a3505050565b5f807ff0c57e16840df040f15088dc2f81fe391c3923bec73e23a9662efc9c229c6a006110ce565b6111bd611906565b610c658161192b565b6040805160028082526060820183525f928392919060208301908036833701905050905083815f815181106111fd576111fd611fd0565b60200260200101906001600160a01b031690816001600160a01b031681525050828160018151811061123157611231611fd0565b6001600160a01b03928316602091820292909201015260405163d06ca61f60e01b81529087169063d06ca61f9061126e90889085906004016124c5565b5f60405180830381865afa9250505080156112aa57506040513d5f823e601f3d908101601f191682016040526112a791908101906124dd565b60015b6112b7575f9150506112e3565b80600182516112c691906123ef565b815181106112d6576112d6611fd0565b6020026020010151925050505b949350505050565b6040805160a0810182526001600160a01b0385811682528481166020830190815282840188815262ffffff868116606086019081525f608087018181529751636352813560e11b815296518616600488015293518516602487015291516044860152905116606484015292518116608483015287169063c6a5026a9060a4016080604051808303815f875af19250505080156113a4575060408051601f3d908101601f191682019092526113a191810190612568565b60015b6113af57505f6113b6565b5091925050505b95945050505050565b6040808301516020840151915163095ea7b360e01b81526001600160a01b039283166004820152602481018490525f929091169063095ea7b3906044016020604051808303815f875af1158015611418573d5f803e3d5ffd5b505050506040513d601f19601f8201168201806040525081019061143c91906123d0565b505f8351600281111561145157611451611ff7565b03611593576040805160028082526060820183525f926020830190803683370190505090508360400151815f8151811061148d5761148d611fd0565b60200260200101906001600160a01b031690816001600160a01b0316815250508360600151816001815181106114c5576114c5611fd0565b60200260200101906001600160a01b031690816001600160a01b0316815250505f84602001516001600160a01b03166338ed17398560018530426040518663ffffffff1660e01b815260040161151f9594939291906125b6565b5f604051808303815f875af115801561153a573d5f803e3d5ffd5b505050506040513d5f823e601f3d908101601f1916820160405261156191908101906124dd565b9050806001825161157291906123ef565b8151811061158257611582611fd0565b6020026020010151925050506110ce565b6001835160028111156115a8576115a8611ff7565b036116ef575f60405180610100016040528085604001516001600160a01b0316815260200185606001516001600160a01b03168152602001856080015162ffffff168152602001306001600160a01b03168152602001426104b061160c91906123bd565b8152602080820186905260016040808401919091525f60609384015287820151815163414bf38960e01b815285516001600160a01b03908116600483015293860151841660248201529185015162ffffff16604483015292840151821660648201526080840151608482015260a084015160a482015260c084015160c482015260e0840151821660e4820152929350169063414bf38990610104016020604051808303815f875af11580156116c3573d5f803e3d5ffd5b505050506040513d601f19601f820116820180604052508101906116e791906124ae565b9150506110ce565b60028351600281111561170457611704611ff7565b036110ce575f6040518060e0016040528085604001516001600160a01b0316815260200185606001516001600160a01b03168152602001306001600160a01b03168152602001426104b061175891906123bd565b8152602080820186905260016040808401919091525f60609384015287820151815163178ca23160e31b815285516001600160a01b039081166004830152938601518416602482015291850151831660448301529284015160648201526080840151608482015260a084015160a482015260c0840151821660c4820152929350169063bc6511889060e4016020604051808303815f875af11580156117ff573d5f803e3d5ffd5b505050506040513d601f19601f820116820180604052508101906112e391906124ae565b61182c82611933565b6040516001600160a01b038316907fbc7cd75a20ee27fd9adebab32041f755214dbc6bffa90cc0225b39da2e5c2d3b905f90a280511561187057610fc78282611996565b610653611a27565b604051632d9ebd1d60e01b81526001600160a01b0383811660048301528281166024830152604482018590525f606483018190529190861690632d9ebd1d9060840160408051808303815f875af19250505080156118f3575060408051601f3d908101601f191682019092526118f0918101906125f1565b60015b6118fe57505f6112e3565b5090506112e3565b61190e611a46565b6106cf57604051631afcd79f60e31b815260040160405180910390fd5b610c33611906565b806001600160a01b03163b5f0361196857604051634c9c8ce360e01b81526001600160a01b03821660048201526024016109ca565b5f8051602061262683398151915280546001600160a01b0319166001600160a01b0392909216919091179055565b60605f6119a38484611a5f565b90508080156119c457505f3d11806119c457505f846001600160a01b03163b115b156119d1576116e7611a72565b80156119fb57604051639996b31560e01b81526001600160a01b03851660048201526024016109ca565b3d15611a0e57611a09611a8b565b610501565b60405163d6bda27560e01b815260040160405180910390fd5b34156106cf5760405163b398979f60e01b815260040160405180910390fd5b5f611a4f61118d565b54600160401b900460ff16919050565b5f805f835160208501865af49392505050565b6040513d81523d5f602083013e3d602001810160405290565b6040513d5f823e3d81fd5b5f8060208385031215611aa7575f80fd5b82356001600160401b0380821115611abd575f80fd5b818501915085601f830112611ad0575f80fd5b813581811115611ade575f80fd5b86602061016083028501011115611af3575f80fd5b60209290920196919550909350505050565b602080825282518282018190525f919060409081850190868401855b82811015611b5257815180518552868101518786015285015115158585015260609093019290850190600101611b21565b5091979650505050505050565b5f8083601f840112611b6f575f80fd5b5081356001600160401b03811115611b85575f80fd5b60208301915083602060a083028501011115611b9f575f80fd5b9250929050565b6001600160a01b0381168114610c65575f80fd5b5f805f8060608587031215611bcd575f80fd5b84356001600160401b03811115611be2575f80fd5b611bee87828801611b5f565b909550935050602085013591506040850135611c0981611ba6565b939692955090935050565b634e487b7160e01b5f52604160045260245ffd5b60405160a081016001600160401b0381118282101715611c4a57611c4a611c14565b60405290565b604051601f8201601f191681016001600160401b0381118282101715611c7857611c78611c14565b604052919050565b5f8060408385031215611c91575f80fd5b8235611c9c81611ba6565b91506020838101356001600160401b0380821115611cb8575f80fd5b818601915086601f830112611ccb575f80fd5b813581811115611cdd57611cdd611c14565b611cef601f8201601f19168501611c50565b91508082528784828501011115611d04575f80fd5b80848401858401375f848284010152508093505050509250929050565b5f60a08284031215611d31575f80fd5b50919050565b5f805f6101608486031215611d4a575f80fd5b611d548585611d21565b9250611d638560a08601611d21565b915061014084013590509250925092565b5f81518084525f5b81811015611d9857602081850181015186830182015201611d7c565b505f602082860101526020601f19601f83011685010191505092915050565b602081525f61096e6020830184611d74565b5f60208284031215611dd9575f80fd5b813561096e81611ba6565b5f805f60408486031215611df6575f80fd5b83356001600160401b03811115611e0b575f80fd5b611e1786828701611b5f565b909790965060209590950135949350505050565b5f8083601f840112611e3b575f80fd5b5081356001600160401b03811115611e51575f80fd5b6020830191508360208260051b8501011115611b9f575f80fd5b5f805f805f805f806080898b031215611e82575f80fd5b88356001600160401b0380821115611e98575f80fd5b611ea48c838d01611e2b565b909a50985060208b0135915080821115611ebc575f80fd5b611ec88c838d01611e2b565b909850965060408b0135915080821115611ee0575f80fd5b611eec8c838d01611e2b565b909650945060608b0135915080821115611f04575f80fd5b818b0191508b601f830112611f17575f80fd5b813581811115611f25575f80fd5b8c6020828501011115611f36575f80fd5b6020830194508093505050509295985092959890939650565b5f8060208385031215611f60575f80fd5b82356001600160401b03811115611f75575f80fd5b611f8185828601611e2b565b90969095509350505050565b602080825282518282018190525f919060409081850190868401855b82811015611b52578151805185528601511515868501529284019290850190600101611fa9565b634e487b7160e01b5f52603260045260245ffd5b803560038110611ff2575f80fd5b919050565b634e487b7160e01b5f52602160045260245ffd5b803562ffffff81168114611ff2575f80fd5b61202681611fe4565b6003811061204257634e487b7160e01b5f52602160045260245ffd5b8252602081013561205281611ba6565b6001600160a01b03908116602084015260408201359061207182611ba6565b908116604084015260608201359061208882611ba6565b16606083015262ffffff61209e6080830161200b565b1660808301525050565b61016081016120b7828661201d565b6120c460a083018561201d565b82610140830152949350505050565b5f80604083850312156120e4575f80fd5b505080516020909101519092909150565b604080825281018390525f8460608301825b8681101561212c57612119828461201d565b60a0928301929190910190600101612107565b506001600160a01b03949094166020939093019290925250909392505050565b5f815180845260208085019450602084015f5b838110156121845781516001600160a01b03168752958201959082019060010161215f565b509495945050505050565b6001600160a01b0385168152608060208083018290525f916121b39084018761214c565b8381036040850152855180825260208088019201905f5b818110156121e6578351835292840192918401916001016121ca565b505084810360608601526121fa8187611d74565b9998505050505050505050565b634e487b7160e01b5f52601160045260245ffd5b5f600160ff1b820161222f5761222f612207565b505f0390565b8181035f83128015838313168383128216171561050157610501612207565b5f60208284031215612264575f80fd5b61096e82611fe4565b5f6020828403121561227d575f80fd5b61096e8261200b565b5f6001600160401b0382111561229e5761229e611c14565b5060051b60200190565b8035611ff281611ba6565b5f8060408084860312156122c5575f80fd5b83356001600160401b038111156122da575f80fd5b8401601f810186136122ea575f80fd5b803560206122ff6122fa83612286565b611c50565b82815260a0928302840182019282820191908a85111561231d575f80fd5b948301945b848610156123a05780868c031215612338575f80fd5b612340611c28565b61234987611fe4565b81528487013561235881611ba6565b818601528688013561236981611ba6565b8189015260608781013561237c81611ba6565b90820152608061238d88820161200b565b9082015283529485019491830191612322565b5096506123b090508782016122a8565b9450505050509250929050565b808201808211156110ce576110ce612207565b5f602082840312156123e0575f80fd5b8151801515811461096e575f80fd5b818103818111156110ce576110ce612207565b5f8235603e19833603018112612416575f80fd5b9190910192915050565b5f808335601e19843603018112612435575f80fd5b8301803591506001600160401b0382111561244e575f80fd5b602001915060a081023603821315611b9f575f80fd5b604080825281018390525f8460608301825b8681101561249b57612488828461201d565b60a0928301929190910190600101612476565b5060209390930193909352509392505050565b5f602082840312156124be575f80fd5b5051919050565b828152604060208201525f6112e3604083018461214c565b5f60208083850312156124ee575f80fd5b82516001600160401b03811115612503575f80fd5b8301601f81018513612513575f80fd5b80516125216122fa82612286565b81815260059190911b8201830190838101908783111561253f575f80fd5b928401925b8284101561255d57835182529284019290840190612544565b979650505050505050565b5f805f806080858703121561257b575f80fd5b84519350602085015161258d81611ba6565b604086015190935063ffffffff811681146125a6575f80fd5b6060959095015193969295505050565b85815284602082015260a060408201525f6125d460a083018661214c565b6001600160a01b0394909416606083015250608001529392505050565b5f8060408385031215612602575f80fd5b82519150602083015161ffff8116811461261a575f80fd5b80915050925092905056fe360894a13ba1a3210667c828492db98dca3e2076cc3735a920a3ca505d382bbca264697066735822122026d0fff34d9b99dd00f32c4ad1e238bea630af37f919058ec4e39efd2179afa964736f6c63430008180033","linkReferences":{}},"methodIdentifiers":{"BALANCER_VAULT()":"bc163846","UPGRADE_INTERFACE_VERSION()":"ad3cb1cc","executeArbitrage((uint8,address,address,address,uint24)[],uint256,address)":"293a83f1","initialize(address)":"c4d66de8","owner()":"8da5cb5b","proxiableUUID()":"52d1902d","quoteArbitrage2Hop((uint8,address,address,address,uint24),(uint8,address,address,address,uint24),uint256)":"52934c90","quoteArbitrage2HopExternal((uint8,address,address,address,uint24),(uint8,address,address,address,uint24),uint256)":"8a324920","quoteBatchArbitrage(((uint8,address,address,address,uint24),(uint8,address,address,address,uint24),uint256)[])":"18b1c2b3","quoteMultiPaths(((uint8,address,address,address,uint24)[],uint256)[])":"fb9adf01","quoteSinglePath((uint8,address,address,address,uint24)[],uint256)":"ea2281b2","receiveFlashLoan(address[],uint256[],uint256[],bytes)":"f04f2707","renounceOwnership()":"715018a6","transferOwnership(address)":"f2fde38b","upgradeToAndCall(address,bytes)":"4f1ef286","version()":"54fd4d50"},"id":34}